:10084500E4FEE4FDAC071FEC70FA0DBD64F60EBEC8
:02085500C8F0E9
:01085700227E
:0C085800C291C292D290D29375A0FE22F1
:0C086400C291D292D290C29375A0FD22E6
:0C087000D291C290C292D29375A0FB22DC
:0C087C00D291C290D292C29375A0F722D4
:0C088800D291D290D292D29375A0EF22B0
:10080000120888C291D290D292D29375A0FE7F0135
:10081000120845D291C290D292D29375A0FD7F0169
:10082000120845D291D290C292D29375A0FB7F015B
:10083000120845D291D290D292C29375A0F77F014F
:0508400012084580BE16
:030000000208945F
:0C089400787FE4F6D8FD758107020800AB
:00000001FF
