:0C087E00E4FFE4FE0EBEFFFC0FBFFFF61F
:01088A00224B
:0E083800C291C293D290D29275A0FE02087EA9
:0E084600C291D293D290C29275A0FD02087E9C
:0E085400D291C290C293D29275A0FB02087E90
:0E086200D291C290D293C29275A0F702087E86
:0E087000D291D290D293D29275A0EF02087E60
:10080000309506309603020838309606209503028C
:100810000846209606309503020854209606209537
:05082000031208622232
:100825001208703081051208008003120870120842
:030835007E80F0D2
:0300000002088B68
:0C088B00787FE4F6D8FD7581070208258F
:00000001FF
