:0709B200020905DC01080049
:10097A00EF1FAA0670011E4A6013E4FCFDC3ED9442
:0D098A007DEC940050EA0DBD00010C80F0E2
:01099700223D
:10099800758911758CB2758AE0758DFB758B24D2BB
:0A09A800AFD28CD2A9D28ED2AB22BE
:03000B00020909DE
:10090900C0E0C0D0E50824FE600B14600C2402701E
:100919000AD2858006D2838002D287758CB2758A05
:08092900E0D28ED0D0D0E03204
:03001B000208CE0A
:1008CE00C0E0C0D075D000C005C007E50824FE60AA
:1008DE000B14600C2402700AC2858006C28380024B
:1008EE00C287C3E4950AFDE49509F58DAF058F8B9C
:0B08FE00C28ED007D005D0D0D0E03271
:02095700A907EE
:10095900E4FBE975F0FAA4FFAEF0C374BE9FF50A93
:10096900740A9EF5097FE87E0312097A0BBB05E23A
:01097900225B
:10088C0075080175A0FB7F0512095775080275A044
:10089C00F77F0412095775080275A0EF7F0712093C
:1008AC005775080175A0DF7F081209577508027586
:1008BC00A0BF7F0512095775080275A07F7F07023C
:0208CC000957CA
:100931007FF47E0112097A120998750905750ADC9E
:100941007508037F051209577F081209577FE87E52
:060951000312097A80ED9B
:03000000020800F3
:0C080000787FE4F6D8FD75810B020847F4
:10080C00020931E493A3F8E493A34003F68001F2C8
:10081C0008DFF48029E493A3F85407240CC8C333ED
:10082C00C4540F4420C8834004F456800146F6DFBC
:10083C00E4800B01020408102040809009B2E47E91
:10084C00019360BCA3FF543F30E509541FFEE493B1
:10085C00A360010ECF54C025E060A840B8E493A378
:10086C00FAE493A3F8E493A3C8C582C8CAC583CAA3
:10087C00F0A3C8C582C8CAC583CADFE9DEE780BE5B
:0109B900003D
:00000001FF
