:0709CB00020905DC01080030
:10099300EF1FAA0670011E4A6013E4FCFDC3ED9429
:0D09A3007DEC940050EA0DBD00010C80F0C9
:0109B0002224
:1009B100758911758CB2758AE0758DFB758B24D2A2
:0A09C100AFD28CD2A9D28ED2AB22A5
:03000B000209489F
:10094800C0E0C0D0E50824FE600B14600C240270DF
:100958000AD2858006D2838002D287758CB2758AC6
:08096800E0D28ED0D0D0E032C5
:03001B0002090DCA
:10090D00C0E0C0D075D000C005C007E50824FE606A
:10091D000B14600C2402700AC2858006C28380020B
:10092D00C287C3E4950AFDE49509F58DAF058F8B5C
:0B093D00C28ED007D005D0D0D0E03231
:02097000A907D5
:10097200E4FBE975F0FAA4FFAEF0C374BE9FF50A7A
:10098200740A9EF5097FE87E031209930BBB05E208
:010992002242
:10088C0075080175A0FB7F0512097075080275A02B
:10089C00F77F0412097075080275A0EF7F07120923
:1008AC007075080175A0DF7F081209707508027554
:1008BC00A0BF7F0512097075080275A07F7F070223
:0208CC000970B1
:1008CE007FF47E011209931209B1750905750ADCD0
:1008DE00750803750B01E50B14FF7401A80708805A
:1008EE0002C333D8FCF4F5A0AF0B1209707F887EDB
:0F08FE0013120993050BE50BC3940940D980D45D
:03000000020800F3
:0C080000787FE4F6D8FD75810B020847F4
:10080C000208CEE493A3F8E493A34003F68001F22C
:10081C0008DFF48029E493A3F85407240CC8C333ED
:10082C00C4540F4420C8834004F456800146F6DFBC
:10083C00E4800B01020408102040809009CBE47E78
:10084C00019360BCA3FF543F30E509541FFEE493B1
:10085C00A360010ECF54C025E060A840B8E493A378
:10086C00FAE493A3F8E493A3C8C582C8CAC583CAA3
:10087C00F0A3C8C582C8CAC583CADFE9DEE780BE5B
:0109D2000024
:00000001FF
