:0709FE00020905DC010800FD
:1009C600EF1FAA0670011E4A6013E4FCFDC3ED94F6
:0D09D6007DEC940050EA0DBD00010C80F096
:0109E30022F1
:1009E400758911758CB2758AE0758DFB758B24D26F
:0A09F400AFD28CD2A9D28ED2AB2272
:03000B0002096186
:10096100C0E0C0D0E50824FE6011146012146013C9
:1009710014601624047016D2858012D283800ED2A0
:1009810087800AD283D2878004D285D287758CB2C0
:0A099100758AE0D28ED0D0D0E0329B
:03001B0002088C4C
:10088C00C0E0C0D075D000C005C007E50824FE60EC
:10089C001114601214601314601624047016C285AF
:1008AC008012C283800EC287800AC283C2878004F2
:1008BC00C285C287C3E4950AFDE49509F58DAF05A1
:0D08CC008F8BC28ED007D005D0D0D0E03287
:08099B001209A37508037F0592
:0209A300A907A2
:1009A500E4FBE975F0FAA4FFAEF0C374BE9FF50A47
:1009B500740A9EF5097FE87E031209C60BBB05E2A2
:0109C500220F
:1008D90075080175A0FB7F0512099B75080275A0B3
:1008E900F77F041209A37508037F081209A3750885
:1008F9000475A0EF7F081209A375080575A0DF7FAD
:10090900081209A375080275A0BF7F0612099B7515
:0A091900080275A07F7F070209A302
:100923007FF47E011209C61209E4750905750ADC14
:1009330075080275A0FE7F071209A375080175A04B
:10094300FD7F081209A375A0FB7508037F07120931
:0E095300A32081051208D980F875A0FC80F35E
:03000000020800F3
:0C080000787FE4F6D8FD75810A020847F5
:10080C00020923E493A3F8E493A34003F68001F2D6
:10081C0008DFF48029E493A3F85407240CC8C333ED
:10082C00C4540F4420C8834004F456800146F6DFBC
:10083C00E4800B01020408102040809009FEE47E45
:10084C00019360BCA3FF543F30E509541FFEE493B1
:10085C00A360010ECF54C025E060A840B8E493A378
:10086C00FAE493A3F8E493A3C8C582C8CAC583CAA3
:10087C00F0A3C8C582C8CAC583CADFE9DEE780BE5B
:010A050000F0
:00000001FF
