:070A7B00020905DC0108007F
:1009EF00EF1FAA0670011E4A6013E4FCFDC3ED94CD
:0D09FF007DEC940050EA0DBD00010C80F06D
:010A0C0022C7
:100A0D00758911758CB2758AE0758DFB758B24D245
:0A0A1D00AFD28CD2A9D28ED2AB2248
:03000B0002097473
:10097400C0E0C0D0E50824FE600E14600F146010BF
:100984002403700ED285800AD2838006D287800227
:0F099400D284758CB2758AE0D28ED0D0D0E0328A
:03001B00020932A5
:10093200C0E0C0D075D000C005C007E50824FE6045
:100942000E14600F1460102403700EC285800AC258
:10095200838006C2878002C284C3E4950AFDE495BF
:1009620009F58DAF058F8BC28ED007D005D0D0D0C0
:02097200E03271
:0209CC00A90779
:1009CE00E4FBE975F0FAA4FFAEF0C374A59FF50A37
:1009DE00740A9EF5097FE87E031209EF0BBB05E250
:0109EE0022E6
:100A2700AD071FED6011E4FEEEC394FF50F2E4FD45
:070A37000DBDFFFC0E80F174
:010A3E002295
:0C0A3F00C291C292D290D29375A0FC220A
:0C0A4B00C291D292D290C29375A0FA2200
:0C0A5700D291C290C292D29375A0F622F8
:0C0A6300D291C290D292C29375A0EE22F4
:0C0A6F00D291D290D292D29375A0DE22D8
:1009A300209508209405120A3F8019309508209459
:1009B30005120A57800E2095053094028003120A0F
:0909C30063120A4B7F01020A27AE
:1008E30075080175A0FB7F051209CC7508037F0409
:1008F3001209CC75080275A0F77F071209CC750899
:10090300037F061209CC75080275A0EF7F0912094F
:10091300CC75080175A0DF7F081209CC7508027534
:0F092300A0BF7F091209CC7508037F040209CC1D
:10088C00120A6F7FF47E011209EF120A0D75090529
:10089C00750ADC75080275A0FE7F091209CC750873
:1008AC000175A0FD7F081209CC75A0FB7508037FAC
:1008BC00041209CC209710120A6F7508047F0712D6
:1008CC0009CC7F081209CC208108120A6F1208E3A8
:0708DC0080E21209A380DD98
:03000000020800F3
:0C080000787FE4F6D8FD75810A020847F5
:10080C0002088CE493A3F8E493A34003F68001F26E
:10081C0008DFF48029E493A3F85407240CC8C333ED
:10082C00C4540F4420C8834004F456800146F6DFBC
:10083C00E4800B0102040810204080900A7BE47EC7
:10084C00019360BCA3FF543F30E509541FFEE493B1
:10085C00A360010ECF54C025E060A840B8E493A378
:10086C00FAE493A3F8E493A3C8C582C8CAC583CAA3
:10087C00F0A3C8C582C8CAC583CADFE9DEE780BE5B
:010A82000073
:00000001FF
