:070A7C00020905DC0108007E
:1009F000EF1FAA0670011E4A6013E4FCFDC3ED94CC
:0D0A00007DEC940050EA0DBD00010C80F06B
:010A0D0022C6
:100A0E00758911758CB2758AE0758DFB758B24D244
:0A0A1E00AFD28CD2A9D28ED2AB2247
:03000B0002096285
:10096200C0E0C0D0E50824FE6011146012146013C8
:1009720014601624047016D2858012D283800ED29F
:1009820087800AD283D2878004D285D287758CB2BF
:0A099200758AE0D28ED0D0D0E0329A
:03001B0002088C4C
:10088C00C0E0C0D075D000C005C007E50824FE60EC
:10089C001114601214601314601624047016C285AF
:1008AC008012C283800EC287800AC283C2878004F2
:1008BC00C285C287C3E4950AFDE49509F58DAF05A1
:0D08CC008F8BC28ED007D005D0D0D0E03287
:08099C001209A47508037F0590
:0209A400A907A1
:1009A600E4FBE975F0FAA4FFAEF0C374BE9FF50A46
:1009B600740A9EF5097FE87E031209F00BBB05E277
:0109C600220E
:100A2800AD071FED6011E4FEEEC394FF50F2E4FD44
:070A38000DBDFFFC0E80F173
:010A3F002294
:0C0A4000C291C292D290D29375A0FC2209
:0C0A4C00C291D292D290C29375A0FA22FF
:0C0A5800D291C290C292D29375A0F622F7
:0C0A6400D291C290D292C29375A0EE22F3
:0C0A7000D291D290D292D29375A0DE22D7
:1009C700209508209405120A408019309508209434
:1009D70005120A58800E209508309405120A4C809B
:0909E70003120A647F01020A28D0
:1008D90075080175A0FB7F0512099C75080275A0B2
:1008E900F77F071209A47508037F081209A4750880
:1008F9000475A0EF7F0A1209A475080575A0DF7FAA
:10090900081209A475080275A0BF7F0912099C7510
:0A091900080275A07F7F0A0209A4FE
:10092300120A707FF47E011209F0120A0E7509058E
:10093300750ADC75080275A0FE7F0A1209A4750802
:100943000175A0FD7F081209A475A0FB12099F2061
:0F0953008108120A701208D980F51209C780F0C6
:03000000020800F3
:0C080000787FE4F6D8FD75810A020847F5
:10080C00020923E493A3F8E493A34003F68001F2D6
:10081C0008DFF48029E493A3F85407240CC8C333ED
:10082C00C4540F4420C8834004F456800146F6DFBC
:10083C00E4800B0102040810204080900A7CE47EC6
:10084C00019360BCA3FF543F30E509541FFEE493B1
:10085C00A360010ECF54C025E060A840B8E493A378
:10086C00FAE493A3F8E493A3C8C582C8CAC583CAA3
:10087C00F0A3C8C582C8CAC583CADFE9DEE780BE5B
:010A83000072
:00000001FF
