:070A7300020905DC01080087
:1009EC00EF1FAA0670011E4A6013E4FCFDC3ED94D0
:0D09FC007DEC940050EA0DBD00010C80F070
:010A090022CA
:100A0A00758911758CB2758AE0758DFB758B24D248
:0A0A1A00AFD28CD2A9D28ED2AB224B
:03000B000209CC1B
:1009CC00C0E0C0D0E50824FE6007047006D2818028
:1009DC0002D283758CB2758AE0D28ED0D0D0E03240
:03001B000209993E
:10099900C0E0C0D075D000C005C007E50824FE60DE
:1009A90007047006C2818002C283C3E4950AFDE48C
:1009B9009509F58DAF058F8BC28ED007D005D0D0A4
:0309C900D0E03249
:080800001208087508017F08C9
:02080800A9073E
:10080A00E4FBE914B40900506F90082175F003A4C1
:10081A00C58325F0C5837302083C02084402084CCC
:10082A0002085402085C02086402086C0208740296
:10083A00087C750909750AC4803E750908750ACAD3
:10084A008036750907750AD0802E750906750AD68D
:10085A008026750905750ADC801E750904750AE289
:10086A008016750903750AE8800E750902750AEE85
:10087A008006750901750AF47FE87E031209EC0BFC
:08088A00EB6405600302080C99
:010892002243
:100A2400E4FEE4FDAC071FEC70FA0DBDFFF60EBE4C
:020A3400FFF0D1
:010A3600229D
:0C0A3700C291C292D290D29375A0FE2210
:0C0A4300C291D292D290C29375A0FD2205
:0C0A4F00D291C290C292D29375A0FB22FB
:0C0A5B00D291C290D292C29375A0F722F3
:0C0A6700D291D290D292D29375A0EF22CF
:10091F00120A0A750905750ADCE4F5087508027FE5
:10092F0005120800120A67E5B0602E75A0DF20954A
:10093F0008209405120A3780193095082094051263
:10094F000A4F800E209508309405120A4380031237
:10095F000A5B7F01120A2480CEE5B060CA75A0BF82
:10096F007508017F051208087508027F0412080830
:10097F007508027F071208007508027F0512080824
:0A098F007508027F07120808809D1A
:0300000002089360
:0C089300787FE4F6D8FD75810A0208DACF
:10089F0002091FE493A3F8E493A34003F68001F247
:1008AF0008DFF48029E493A3F85407240CC8C3335A
:1008BF00C4540F4420C8834004F456800146F6DF29
:1008CF00E4800B0102040810204080900A73E47E3C
:1008DF00019360BCA3FF543F30E509541FFEE4931E
:1008EF00A360010ECF54C025E060A840B8E493A3E5
:1008FF00FAE493A3F8E493A3C8C582C8CAC583CA10
:10090F00F0A3C8C582C8CAC583CADFE9DEE780BEC7
:010A7A00007B
:00000001FF
